{
  "contractName": "NFTErc721a",
  "abi": [
    {
      "inputs": [
        {
          "internalType": "address",
          "name": "marketplaceAddress",
          "type": "address"
        },
        {
          "internalType": "uint256",
          "name": "_maxBatchSize",
          "type": "uint256"
        }
      ],
      "stateMutability": "nonpayable",
      "type": "constructor"
    },
    {
      "anonymous": false,
      "inputs": [
        {
          "indexed": true,
          "internalType": "address",
          "name": "owner",
          "type": "address"
        },
        {
          "indexed": true,
          "internalType": "address",
          "name": "approved",
          "type": "address"
        },
        {
          "indexed": true,
          "internalType": "uint256",
          "name": "tokenId",
          "type": "uint256"
        }
      ],
      "name": "Approval",
      "type": "event"
    },
    {
      "anonymous": false,
      "inputs": [
        {
          "indexed": true,
          "internalType": "address",
          "name": "owner",
          "type": "address"
        },
        {
          "indexed": true,
          "internalType": "address",
          "name": "operator",
          "type": "address"
        },
        {
          "indexed": false,
          "internalType": "bool",
          "name": "approved",
          "type": "bool"
        }
      ],
      "name": "ApprovalForAll",
      "type": "event"
    },
    {
      "anonymous": false,
      "inputs": [
        {
          "indexed": true,
          "internalType": "address",
          "name": "previousOwner",
          "type": "address"
        },
        {
          "indexed": true,
          "internalType": "address",
          "name": "newOwner",
          "type": "address"
        }
      ],
      "name": "OwnershipTransferred",
      "type": "event"
    },
    {
      "anonymous": false,
      "inputs": [
        {
          "indexed": true,
          "internalType": "address",
          "name": "from",
          "type": "address"
        },
        {
          "indexed": true,
          "internalType": "address",
          "name": "to",
          "type": "address"
        },
        {
          "indexed": true,
          "internalType": "uint256",
          "name": "tokenId",
          "type": "uint256"
        }
      ],
      "name": "Transfer",
      "type": "event"
    },
    {
      "inputs": [],
      "name": "_tokenURI",
      "outputs": [
        {
          "internalType": "string",
          "name": "",
          "type": "string"
        }
      ],
      "stateMutability": "view",
      "type": "function",
      "constant": true
    },
    {
      "inputs": [
        {
          "internalType": "address",
          "name": "to",
          "type": "address"
        },
        {
          "internalType": "uint256",
          "name": "tokenId",
          "type": "uint256"
        }
      ],
      "name": "approve",
      "outputs": [],
      "stateMutability": "nonpayable",
      "type": "function"
    },
    {
      "inputs": [
        {
          "internalType": "address",
          "name": "owner",
          "type": "address"
        }
      ],
      "name": "balanceOf",
      "outputs": [
        {
          "internalType": "uint256",
          "name": "",
          "type": "uint256"
        }
      ],
      "stateMutability": "view",
      "type": "function",
      "constant": true
    },
    {
      "inputs": [
        {
          "internalType": "uint256",
          "name": "tokenId",
          "type": "uint256"
        }
      ],
      "name": "getApproved",
      "outputs": [
        {
          "internalType": "address",
          "name": "",
          "type": "address"
        }
      ],
      "stateMutability": "view",
      "type": "function",
      "constant": true
    },
    {
      "inputs": [
        {
          "internalType": "address",
          "name": "owner",
          "type": "address"
        },
        {
          "internalType": "address",
          "name": "operator",
          "type": "address"
        }
      ],
      "name": "isApprovedForAll",
      "outputs": [
        {
          "internalType": "bool",
          "name": "",
          "type": "bool"
        }
      ],
      "stateMutability": "view",
      "type": "function",
      "constant": true
    },
    {
      "inputs": [],
      "name": "isRevealed",
      "outputs": [
        {
          "internalType": "bool",
          "name": "",
          "type": "bool"
        }
      ],
      "stateMutability": "view",
      "type": "function",
      "constant": true
    },
    {
      "inputs": [],
      "name": "name",
      "outputs": [
        {
          "internalType": "string",
          "name": "",
          "type": "string"
        }
      ],
      "stateMutability": "view",
      "type": "function",
      "constant": true
    },
    {
      "inputs": [],
      "name": "nextOwnerToExplicitlySet",
      "outputs": [
        {
          "internalType": "uint256",
          "name": "",
          "type": "uint256"
        }
      ],
      "stateMutability": "view",
      "type": "function",
      "constant": true
    },
    {
      "inputs": [],
      "name": "owner",
      "outputs": [
        {
          "internalType": "address",
          "name": "",
          "type": "address"
        }
      ],
      "stateMutability": "view",
      "type": "function",
      "constant": true
    },
    {
      "inputs": [
        {
          "internalType": "uint256",
          "name": "tokenId",
          "type": "uint256"
        }
      ],
      "name": "ownerOf",
      "outputs": [
        {
          "internalType": "address",
          "name": "",
          "type": "address"
        }
      ],
      "stateMutability": "view",
      "type": "function",
      "constant": true
    },
    {
      "inputs": [],
      "name": "renounceOwnership",
      "outputs": [],
      "stateMutability": "nonpayable",
      "type": "function"
    },
    {
      "inputs": [
        {
          "internalType": "address",
          "name": "from",
          "type": "address"
        },
        {
          "internalType": "address",
          "name": "to",
          "type": "address"
        },
        {
          "internalType": "uint256",
          "name": "tokenId",
          "type": "uint256"
        }
      ],
      "name": "safeTransferFrom",
      "outputs": [],
      "stateMutability": "nonpayable",
      "type": "function"
    },
    {
      "inputs": [
        {
          "internalType": "address",
          "name": "from",
          "type": "address"
        },
        {
          "internalType": "address",
          "name": "to",
          "type": "address"
        },
        {
          "internalType": "uint256",
          "name": "tokenId",
          "type": "uint256"
        },
        {
          "internalType": "bytes",
          "name": "_data",
          "type": "bytes"
        }
      ],
      "name": "safeTransferFrom",
      "outputs": [],
      "stateMutability": "nonpayable",
      "type": "function"
    },
    {
      "inputs": [
        {
          "internalType": "address",
          "name": "operator",
          "type": "address"
        },
        {
          "internalType": "bool",
          "name": "approved",
          "type": "bool"
        }
      ],
      "name": "setApprovalForAll",
      "outputs": [],
      "stateMutability": "nonpayable",
      "type": "function"
    },
    {
      "inputs": [
        {
          "internalType": "bytes4",
          "name": "interfaceId",
          "type": "bytes4"
        }
      ],
      "name": "supportsInterface",
      "outputs": [
        {
          "internalType": "bool",
          "name": "",
          "type": "bool"
        }
      ],
      "stateMutability": "view",
      "type": "function",
      "constant": true
    },
    {
      "inputs": [],
      "name": "symbol",
      "outputs": [
        {
          "internalType": "string",
          "name": "",
          "type": "string"
        }
      ],
      "stateMutability": "view",
      "type": "function",
      "constant": true
    },
    {
      "inputs": [
        {
          "internalType": "uint256",
          "name": "index",
          "type": "uint256"
        }
      ],
      "name": "tokenByIndex",
      "outputs": [
        {
          "internalType": "uint256",
          "name": "",
          "type": "uint256"
        }
      ],
      "stateMutability": "view",
      "type": "function",
      "constant": true
    },
    {
      "inputs": [],
      "name": "tokenId",
      "outputs": [
        {
          "internalType": "uint256",
          "name": "",
          "type": "uint256"
        }
      ],
      "stateMutability": "view",
      "type": "function",
      "constant": true
    },
    {
      "inputs": [
        {
          "internalType": "address",
          "name": "owner",
          "type": "address"
        },
        {
          "internalType": "uint256",
          "name": "index",
          "type": "uint256"
        }
      ],
      "name": "tokenOfOwnerByIndex",
      "outputs": [
        {
          "internalType": "uint256",
          "name": "",
          "type": "uint256"
        }
      ],
      "stateMutability": "view",
      "type": "function",
      "constant": true
    },
    {
      "inputs": [
        {
          "internalType": "uint256",
          "name": "tokenId",
          "type": "uint256"
        }
      ],
      "name": "tokenURI",
      "outputs": [
        {
          "internalType": "string",
          "name": "",
          "type": "string"
        }
      ],
      "stateMutability": "view",
      "type": "function",
      "constant": true
    },
    {
      "inputs": [],
      "name": "totalNFTSupply",
      "outputs": [
        {
          "internalType": "uint256",
          "name": "",
          "type": "uint256"
        }
      ],
      "stateMutability": "view",
      "type": "function",
      "constant": true
    },
    {
      "inputs": [],
      "name": "totalSupply",
      "outputs": [
        {
          "internalType": "uint256",
          "name": "",
          "type": "uint256"
        }
      ],
      "stateMutability": "view",
      "type": "function",
      "constant": true
    },
    {
      "inputs": [
        {
          "internalType": "address",
          "name": "from",
          "type": "address"
        },
        {
          "internalType": "address",
          "name": "to",
          "type": "address"
        },
        {
          "internalType": "uint256",
          "name": "tokenId",
          "type": "uint256"
        }
      ],
      "name": "transferFrom",
      "outputs": [],
      "stateMutability": "nonpayable",
      "type": "function"
    },
    {
      "inputs": [
        {
          "internalType": "address",
          "name": "newOwner",
          "type": "address"
        }
      ],
      "name": "transferOwnership",
      "outputs": [],
      "stateMutability": "nonpayable",
      "type": "function"
    },
    {
      "inputs": [
        {
          "internalType": "address",
          "name": "contractAddress",
          "type": "address"
        },
        {
          "internalType": "uint256",
          "name": "quantity",
          "type": "uint256"
        },
        {
          "internalType": "bytes",
          "name": "data",
          "type": "bytes"
        },
        {
          "internalType": "string",
          "name": "tokenURI_",
          "type": "string"
        }
      ],
      "name": "mintNFTToken",
      "outputs": [
        {
          "internalType": "uint256",
          "name": "",
          "type": "uint256"
        }
      ],
      "stateMutability": "nonpayable",
      "type": "function"
    },
    {
      "inputs": [
        {
          "internalType": "uint256",
          "name": "_tokenId",
          "type": "uint256"
        },
        {
          "internalType": "string",
          "name": "token_URI",
          "type": "string"
        }
      ],
      "name": "setTokenURI",
      "outputs": [],
      "stateMutability": "nonpayable",
      "type": "function"
    },
    {
      "inputs": [
        {
          "internalType": "address",
          "name": "to",
          "type": "address"
        },
        {
          "internalType": "uint256",
          "name": "quantity",
          "type": "uint256"
        },
        {
          "internalType": "bytes",
          "name": "_data",
          "type": "bytes"
        }
      ],
      "name": "createNFTtoken",
      "outputs": [
        {
          "internalType": "uint256",
          "name": "",
          "type": "uint256"
        }
      ],
      "stateMutability": "nonpayable",
      "type": "function"
    },
    {
      "inputs": [],
      "name": "getTotalSupply",
      "outputs": [
        {
          "internalType": "uint256",
          "name": "",
          "type": "uint256"
        }
      ],
      "stateMutability": "view",
      "type": "function",
      "constant": true
    },
    {
      "inputs": [
        {
          "internalType": "address",
          "name": "",
          "type": "address"
        },
        {
          "internalType": "address",
          "name": "",
          "type": "address"
        },
        {
          "internalType": "uint256",
          "name": "",
          "type": "uint256"
        },
        {
          "internalType": "bytes",
          "name": "",
          "type": "bytes"
        }
      ],
      "name": "onERC721Received",
      "outputs": [
        {
          "internalType": "bytes4",
          "name": "",
          "type": "bytes4"
        }
      ],
      "stateMutability": "nonpayable",
      "type": "function"
    }
  ],
  "bytecode": "0x60a06040526000805560006007553480156200001a57600080fd5b50604051620045b1380380620045b1833981810160405281019062000040919062000345565b6040518060400160405280600a81526020017f4e465420547261646572000000000000000000000000000000000000000000008152506040518060400160405280600481526020017f4e465454000000000000000000000000000000000000000000000000000000008152508260008111620000f3576040517f08c379a0000000000000000000000000000000000000000000000000000000008152600401620000ea90620003ad565b60405180910390fd5b82600190805190602001906200010b92919062000267565b5081600290805190602001906200012492919062000267565b50806080818152505050505062000150620001446200019960201b60201c565b620001a160201b60201c565b81600e60016101000a81548173ffffffffffffffffffffffffffffffffffffffff021916908373ffffffffffffffffffffffffffffffffffffffff160217905550505062000506565b600033905090565b6000600960009054906101000a900473ffffffffffffffffffffffffffffffffffffffff16905081600960006101000a81548173ffffffffffffffffffffffffffffffffffffffff021916908373ffffffffffffffffffffffffffffffffffffffff1602179055508173ffffffffffffffffffffffffffffffffffffffff168173ffffffffffffffffffffffffffffffffffffffff167f8be0079c531659141344cd1fd0a4f28419497f9722a3daafe3b4186f6b6457e060405160405180910390a35050565b82805462000275906200041e565b90600052602060002090601f016020900481019282620002995760008555620002e5565b82601f10620002b457805160ff1916838001178555620002e5565b82800160010185558215620002e5579182015b82811115620002e4578251825591602001919060010190620002c7565b5b509050620002f49190620002f8565b5090565b5b8082111562000313576000816000905550600101620002f9565b5090565b6000815190506200032881620004d2565b92915050565b6000815190506200033f81620004ec565b92915050565b600080604083850312156200035957600080fd5b6000620003698582860162000317565b92505060206200037c858286016200032e565b9150509250929050565b600062000395602783620003cf565b9150620003a28262000483565b604082019050919050565b60006020820190508181036000830152620003c88162000386565b9050919050565b600082825260208201905092915050565b6000620003ed82620003f4565b9050919050565b600073ffffffffffffffffffffffffffffffffffffffff82169050919050565b6000819050919050565b600060028204905060018216806200043757607f821691505b602082108114156200044e576200044d62000454565b5b50919050565b7f4e487b7100000000000000000000000000000000000000000000000000000000600052602260045260246000fd5b7f455243373231413a206d61782062617463682073697a65206d7573742062652060008201527f6e6f6e7a65726f00000000000000000000000000000000000000000000000000602082015250565b620004dd81620003e0565b8114620004e957600080fd5b50565b620004f78162000414565b81146200050357600080fd5b50565b6080516140816200053060003960008181611c9101528181612127015261215001526140816000f3fe608060405234801561001057600080fd5b50600436106101cf5760003560e01c806354214f6911610104578063b4ce37d2116100a2578063d7224ba011610071578063d7224ba014610556578063e2c7928114610574578063e985e9c514610592578063f2fde38b146105c2576101cf565b8063b4ce37d2146104ce578063b88d4fde146104ec578063c4e41b2214610508578063c87b56dd14610526576101cf565b8063715018a6116100de578063715018a61461046c5780638da5cb5b1461047657806395d89b4114610494578063a22cb465146104b2576101cf565b806354214f69146103ee5780636352211e1461040c57806370a082311461043c576101cf565b806318160ddd1161017157806342842e0e1161014b57806342842e0e14610342578063488b8cde1461035e5780634f6ccce71461038e5780635024dec3146103be576101cf565b806318160ddd146102d857806323b872dd146102f65780632f745c5914610312576101cf565b8063095ea7b3116101ad578063095ea7b314610252578063150b7a021461026e578063162094c41461029e57806317d70f7c146102ba576101cf565b806301ffc9a7146101d457806306fdde0314610204578063081812fc14610222575b600080fd5b6101ee60048036038101906101e99190612c84565b6105de565b6040516101fb91906131bf565b60405180910390f35b61020c610728565b60405161021991906131f5565b60405180910390f35b61023c60048036038101906102379190612cd6565b6107ba565b6040516102499190613158565b60405180910390f35b61026c60048036038101906102679190612b4e565b61083f565b005b61028860048036038101906102839190612a97565b610958565b60405161029591906131da565b60405180910390f35b6102b860048036038101906102b39190612cff565b61096c565b005b6102c261097a565b6040516102cf91906134d7565b60405180910390f35b6102e0610980565b6040516102ed91906134d7565b60405180910390f35b610310600480360381019061030b9190612a48565b610989565b005b61032c60048036038101906103279190612b4e565b610999565b60405161033991906134d7565b60405180910390f35b61035c60048036038101906103579190612a48565b610b97565b005b61037860048036038101906103739190612b8a565b610bb7565b60405161038591906134d7565b60405180910390f35b6103a860048036038101906103a39190612cd6565b610c11565b6040516103b591906134d7565b60405180910390f35b6103d860048036038101906103d39190612bf1565b610c64565b6040516103e591906134d7565b60405180910390f35b6103f6610cbd565b60405161040391906131bf565b60405180910390f35b61042660048036038101906104219190612cd6565b610cd0565b6040516104339190613158565b60405180910390f35b610456600480360381019061045191906129e3565b610ce6565b60405161046391906134d7565b60405180910390f35b610474610dcf565b005b61047e610e57565b60405161048b9190613158565b60405180910390f35b61049c610e81565b6040516104a991906131f5565b60405180910390f35b6104cc60048036038101906104c79190612b12565b610f13565b005b6104d6611094565b6040516104e391906131f5565b60405180910390f35b61050660048036038101906105019190612a97565b611122565b005b61051061117e565b60405161051d91906134d7565b60405180910390f35b610540600480360381019061053b9190612cd6565b611188565b60405161054d91906131f5565b60405180910390f35b61055e6112da565b60405161056b91906134d7565b60405180910390f35b61057c6112e0565b60405161058991906134d7565b60405180910390f35b6105ac60048036038101906105a79190612a0c565b6112e6565b6040516105b991906131bf565b60405180910390f35b6105dc60048036038101906105d791906129e3565b61137a565b005b60007f80ac58cd000000000000000000000000000000000000000000000000000000007bffffffffffffffffffffffffffffffffffffffffffffffffffffffff1916827bffffffffffffffffffffffffffffffffffffffffffffffffffffffff191614806106a957507f5b5e139f000000000000000000000000000000000000000000000000000000007bffffffffffffffffffffffffffffffffffffffffffffffffffffffff1916827bffffffffffffffffffffffffffffffffffffffffffffffffffffffff1916145b8061071157507f780e9d63000000000000000000000000000000000000000000000000000000007bffffffffffffffffffffffffffffffffffffffffffffffffffffffff1916827bffffffffffffffffffffffffffffffffffffffffffffffffffffffff1916145b80610721575061072082611472565b5b9050919050565b606060018054610737906137ed565b80601f0160208091040260200160405190810160405280929190818152602001828054610763906137ed565b80156107b05780601f10610785576101008083540402835291602001916107b0565b820191906000526020600020905b81548152906001019060200180831161079357829003601f168201915b5050505050905090565b60006107c5826114dc565b610804576040517f08c379a00000000000000000000000000000000000000000000000000000000081526004016107fb90613497565b60405180910390fd5b6005600083815260200190815260200160002060009054906101000a900473ffffffffffffffffffffffffffffffffffffffff169050919050565b600061084a82610cd0565b90508073ffffffffffffffffffffffffffffffffffffffff168373ffffffffffffffffffffffffffffffffffffffff1614156108bb576040517f08c379a00000000000000000000000000000000000000000000000000000000081526004016108b2906133d7565b60405180910390fd5b8073ffffffffffffffffffffffffffffffffffffffff166108da6114e9565b73ffffffffffffffffffffffffffffffffffffffff1614806109095750610908816109036114e9565b6112e6565b5b610948576040517f08c379a000000000000000000000000000000000000000000000000000000000815260040161093f906132b7565b60405180910390fd5b6109538383836114f1565b505050565b600063150b7a0260e01b9050949350505050565b61097682826115a3565b5050565b600b5481565b60008054905090565b610994838383611617565b505050565b60006109a483610ce6565b82106109e5576040517f08c379a00000000000000000000000000000000000000000000000000000000081526004016109dc90613217565b60405180910390fd5b60006109ef610980565b905060008060005b83811015610b55576000600360008381526020019081526020016000206040518060400160405290816000820160009054906101000a900473ffffffffffffffffffffffffffffffffffffffff1673ffffffffffffffffffffffffffffffffffffffff1673ffffffffffffffffffffffffffffffffffffffff1681526020016000820160149054906101000a900467ffffffffffffffff1667ffffffffffffffff1667ffffffffffffffff16815250509050600073ffffffffffffffffffffffffffffffffffffffff16816000015173ffffffffffffffffffffffffffffffffffffffff1614610ae957806000015192505b8773ffffffffffffffffffffffffffffffffffffffff168373ffffffffffffffffffffffffffffffffffffffff161415610b415786841415610b32578195505050505050610b91565b8380610b3d90613850565b9450505b508080610b4d90613850565b9150506109f7565b506040517f08c379a0000000000000000000000000000000000000000000000000000000008152600401610b8890613457565b60405180910390fd5b92915050565b610bb283838360405180602001604052806000815250611122565b505050565b6000610bc4848484611bd0565b82600c54610bd29190613602565b600c81905550610c05600e60019054906101000a900473ffffffffffffffffffffffffffffffffffffffff166001610f13565b600b5490509392505050565b6000610c1b610980565b8210610c5c576040517f08c379a0000000000000000000000000000000000000000000000000000000008152600401610c5390613277565b60405180910390fd5b819050919050565b600080610c71600a6120af565b9050610c7d600a6120bd565b610c88868686611bd0565b84600c54610c969190613602565b600c81905550610ca681846115a3565b610cb1866001610f13565b80915050949350505050565b600e60009054906101000a900460ff1681565b6000610cdb826120d3565b600001519050919050565b60008073ffffffffffffffffffffffffffffffffffffffff168273ffffffffffffffffffffffffffffffffffffffff161415610d57576040517f08c379a0000000000000000000000000000000000000000000000000000000008152600401610d4e906132f7565b60405180910390fd5b600460008373ffffffffffffffffffffffffffffffffffffffff1673ffffffffffffffffffffffffffffffffffffffff16815260200190815260200160002060000160009054906101000a90046fffffffffffffffffffffffffffffffff166fffffffffffffffffffffffffffffffff169050919050565b610dd76114e9565b73ffffffffffffffffffffffffffffffffffffffff16610df5610e57565b73ffffffffffffffffffffffffffffffffffffffff1614610e4b576040517f08c379a0000000000000000000000000000000000000000000000000000000008152600401610e4290613357565b60405180910390fd5b610e5560006122d6565b565b6000600960009054906101000a900473ffffffffffffffffffffffffffffffffffffffff16905090565b606060028054610e90906137ed565b80601f0160208091040260200160405190810160405280929190818152602001828054610ebc906137ed565b8015610f095780601f10610ede57610100808354040283529160200191610f09565b820191906000526020600020905b815481529060010190602001808311610eec57829003601f168201915b5050505050905090565b610f1b6114e9565b73ffffffffffffffffffffffffffffffffffffffff168273ffffffffffffffffffffffffffffffffffffffff161415610f89576040517f08c379a0000000000000000000000000000000000000000000000000000000008152600401610f8090613397565b60405180910390fd5b8060066000610f966114e9565b73ffffffffffffffffffffffffffffffffffffffff1673ffffffffffffffffffffffffffffffffffffffff16815260200190815260200160002060008473ffffffffffffffffffffffffffffffffffffffff1673ffffffffffffffffffffffffffffffffffffffff16815260200190815260200160002060006101000a81548160ff0219169083151502179055508173ffffffffffffffffffffffffffffffffffffffff166110436114e9565b73ffffffffffffffffffffffffffffffffffffffff167f17307eab39ab6107e8899845ad3d59bd9653f200f220920489ca2b5937696c318360405161108891906131bf565b60405180910390a35050565b600d80546110a1906137ed565b80601f01602080910402602001604051908101604052809291908181526020018280546110cd906137ed565b801561111a5780601f106110ef5761010080835404028352916020019161111a565b820191906000526020600020905b8154815290600101906020018083116110fd57829003601f168201915b505050505081565b61112d848484611617565b6111398484848461239c565b611178576040517f08c379a000000000000000000000000000000000000000000000000000000000815260040161116f906133f7565b60405180910390fd5b50505050565b6000600c54905090565b6060611193826114dc565b6111d2576040517f08c379a00000000000000000000000000000000000000000000000000000000081526004016111c990613317565b60405180910390fd5b60006008600084815260200190815260200160002080546111f2906137ed565b80601f016020809104026020016040519081016040528092919081815260200182805461121e906137ed565b801561126b5780601f106112405761010080835404028352916020019161126b565b820191906000526020600020905b81548152906001019060200180831161124e57829003601f168201915b50505050509050600061127c612533565b90506000815114156112925781925050506112d5565b6000825111156112c75780826040516020016112af929190613134565b604051602081830303815290604052925050506112d5565b6112d08461254a565b925050505b919050565b60075481565b600c5481565b6000600660008473ffffffffffffffffffffffffffffffffffffffff1673ffffffffffffffffffffffffffffffffffffffff16815260200190815260200160002060008373ffffffffffffffffffffffffffffffffffffffff1673ffffffffffffffffffffffffffffffffffffffff16815260200190815260200160002060009054906101000a900460ff16905092915050565b6113826114e9565b73ffffffffffffffffffffffffffffffffffffffff166113a0610e57565b73ffffffffffffffffffffffffffffffffffffffff16146113f6576040517f08c379a00000000000000000000000000000000000000000000000000000000081526004016113ed90613357565b60405180910390fd5b600073ffffffffffffffffffffffffffffffffffffffff168173ffffffffffffffffffffffffffffffffffffffff161415611466576040517f08c379a000000000000000000000000000000000000000000000000000000000815260040161145d90613237565b60405180910390fd5b61146f816122d6565b50565b60007f01ffc9a7000000000000000000000000000000000000000000000000000000007bffffffffffffffffffffffffffffffffffffffffffffffffffffffff1916827bffffffffffffffffffffffffffffffffffffffffffffffffffffffff1916149050919050565b6000805482109050919050565b600033905090565b826005600084815260200190815260200160002060006101000a81548173ffffffffffffffffffffffffffffffffffffffff021916908373ffffffffffffffffffffffffffffffffffffffff160217905550818373ffffffffffffffffffffffffffffffffffffffff168273ffffffffffffffffffffffffffffffffffffffff167f8c5be1e5ebec7d5bd14f71427d1e84f3dd0314c0f7b2291e5b200ac8c7c3b92560405160405180910390a4505050565b6115ac826114dc565b6115eb576040517f08c379a00000000000000000000000000000000000000000000000000000000081526004016115e2906132d7565b60405180910390fd5b806008600084815260200190815260200160002090805190602001906116129291906127cd565b505050565b6000611622826120d3565b90506000816000015173ffffffffffffffffffffffffffffffffffffffff166116496114e9565b73ffffffffffffffffffffffffffffffffffffffff1614806116a5575061166e6114e9565b73ffffffffffffffffffffffffffffffffffffffff1661168d846107ba565b73ffffffffffffffffffffffffffffffffffffffff16145b806116c157506116c082600001516116bb6114e9565b6112e6565b5b905080611703576040517f08c379a00000000000000000000000000000000000000000000000000000000081526004016116fa906133b7565b60405180910390fd5b8473ffffffffffffffffffffffffffffffffffffffff16826000015173ffffffffffffffffffffffffffffffffffffffff1614611775576040517f08c379a000000000000000000000000000000000000000000000000000000000815260040161176c90613337565b60405180910390fd5b600073ffffffffffffffffffffffffffffffffffffffff168473ffffffffffffffffffffffffffffffffffffffff1614156117e5576040517f08c379a00000000000000000000000000000000000000000000000000000000081526004016117dc90613297565b60405180910390fd5b6117f285858560016125f1565b61180260008484600001516114f1565b6001600460008773ffffffffffffffffffffffffffffffffffffffff1673ffffffffffffffffffffffffffffffffffffffff16815260200190815260200160002060000160008282829054906101000a90046fffffffffffffffffffffffffffffffff166118709190613689565b92506101000a8154816fffffffffffffffffffffffffffffffff02191690836fffffffffffffffffffffffffffffffff1602179055506001600460008673ffffffffffffffffffffffffffffffffffffffff1673ffffffffffffffffffffffffffffffffffffffff16815260200190815260200160002060000160008282829054906101000a90046fffffffffffffffffffffffffffffffff1661191491906135bc565b92506101000a8154816fffffffffffffffffffffffffffffffff02191690836fffffffffffffffffffffffffffffffff16021790555060405180604001604052808573ffffffffffffffffffffffffffffffffffffffff1681526020014267ffffffffffffffff168152506003600085815260200190815260200160002060008201518160000160006101000a81548173ffffffffffffffffffffffffffffffffffffffff021916908373ffffffffffffffffffffffffffffffffffffffff16021790555060208201518160000160146101000a81548167ffffffffffffffff021916908367ffffffffffffffff1602179055509050506000600184611a1a9190613602565b9050600073ffffffffffffffffffffffffffffffffffffffff166003600083815260200190815260200160002060000160009054906101000a900473ffffffffffffffffffffffffffffffffffffffff1673ffffffffffffffffffffffffffffffffffffffff161415611b6057611a90816114dc565b15611b5f576040518060400160405280846000015173ffffffffffffffffffffffffffffffffffffffff168152602001846020015167ffffffffffffffff168152506003600083815260200190815260200160002060008201518160000160006101000a81548173ffffffffffffffffffffffffffffffffffffffff021916908373ffffffffffffffffffffffffffffffffffffffff16021790555060208201518160000160146101000a81548167ffffffffffffffff021916908367ffffffffffffffff1602179055509050505b5b838573ffffffffffffffffffffffffffffffffffffffff168773ffffffffffffffffffffffffffffffffffffffff167fddf252ad1be2c89b69c2b068fc378daa952ba7f163c4a11628f55a4df523b3ef60405160405180910390a4611bc886868660016125f7565b505050505050565b600080549050600073ffffffffffffffffffffffffffffffffffffffff168473ffffffffffffffffffffffffffffffffffffffff161415611c46576040517f08c379a0000000000000000000000000000000000000000000000000000000008152600401611c3d90613437565b60405180910390fd5b611c4f816114dc565b15611c8f576040517f08c379a0000000000000000000000000000000000000000000000000000000008152600401611c8690613417565b60405180910390fd5b7f0000000000000000000000000000000000000000000000000000000000000000831115611cf2576040517f08c379a0000000000000000000000000000000000000000000000000000000008152600401611ce9906134b7565b60405180910390fd5b611cff60008583866125f1565b6000600460008673ffffffffffffffffffffffffffffffffffffffff1673ffffffffffffffffffffffffffffffffffffffff1681526020019081526020016000206040518060400160405290816000820160009054906101000a90046fffffffffffffffffffffffffffffffff166fffffffffffffffffffffffffffffffff166fffffffffffffffffffffffffffffffff1681526020016000820160109054906101000a90046fffffffffffffffffffffffffffffffff166fffffffffffffffffffffffffffffffff166fffffffffffffffffffffffffffffffff168152505090506040518060400160405280858360000151611dfc91906135bc565b6fffffffffffffffffffffffffffffffff168152602001858360200151611e2391906135bc565b6fffffffffffffffffffffffffffffffff16815250600460008773ffffffffffffffffffffffffffffffffffffffff1673ffffffffffffffffffffffffffffffffffffffff16815260200190815260200160002060008201518160000160006101000a8154816fffffffffffffffffffffffffffffffff02191690836fffffffffffffffffffffffffffffffff16021790555060208201518160000160106101000a8154816fffffffffffffffffffffffffffffffff02191690836fffffffffffffffffffffffffffffffff16021790555090505060405180604001604052808673ffffffffffffffffffffffffffffffffffffffff1681526020014267ffffffffffffffff168152506003600084815260200190815260200160002060008201518160000160006101000a81548173ffffffffffffffffffffffffffffffffffffffff021916908373ffffffffffffffffffffffffffffffffffffffff16021790555060208201518160000160146101000a81548167ffffffffffffffff021916908367ffffffffffffffff160217905550905050600082905060005b8581101561209257818773ffffffffffffffffffffffffffffffffffffffff16600073ffffffffffffffffffffffffffffffffffffffff167fddf252ad1be2c89b69c2b068fc378daa952ba7f163c4a11628f55a4df523b3ef60405160405180910390a4612032600088848861239c565b612071576040517f08c379a0000000000000000000000000000000000000000000000000000000008152600401612068906133f7565b60405180910390fd5b818061207c90613850565b925050808061208a90613850565b915050611fc1565b50806000819055506120a760008785886125f7565b505050505050565b600081600001549050919050565b6001816000016000828254019250508190555050565b6120db612853565b6120e4826114dc565b612123576040517f08c379a000000000000000000000000000000000000000000000000000000000815260040161211a90613257565b60405180910390fd5b60007f000000000000000000000000000000000000000000000000000000000000000083106121875760017f00000000000000000000000000000000000000000000000000000000000000008461217a91906136bd565b6121849190613602565b90505b60008390505b818110612295576000600360008381526020019081526020016000206040518060400160405290816000820160009054906101000a900473ffffffffffffffffffffffffffffffffffffffff1673ffffffffffffffffffffffffffffffffffffffff1673ffffffffffffffffffffffffffffffffffffffff1681526020016000820160149054906101000a900467ffffffffffffffff1667ffffffffffffffff1667ffffffffffffffff16815250509050600073ffffffffffffffffffffffffffffffffffffffff16816000015173ffffffffffffffffffffffffffffffffffffffff1614612281578093505050506122d1565b50808061228d906137c3565b91505061218d565b506040517f08c379a00000000000000000000000000000000000000000000000000000000081526004016122c890613477565b60405180910390fd5b919050565b6000600960009054906101000a900473ffffffffffffffffffffffffffffffffffffffff16905081600960006101000a81548173ffffffffffffffffffffffffffffffffffffffff021916908373ffffffffffffffffffffffffffffffffffffffff1602179055508173ffffffffffffffffffffffffffffffffffffffff168173ffffffffffffffffffffffffffffffffffffffff167f8be0079c531659141344cd1fd0a4f28419497f9722a3daafe3b4186f6b6457e060405160405180910390a35050565b60006123bd8473ffffffffffffffffffffffffffffffffffffffff166125fd565b15612526578373ffffffffffffffffffffffffffffffffffffffff1663150b7a026123e66114e9565b8786866040518563ffffffff1660e01b81526004016124089493929190613173565b602060405180830381600087803b15801561242257600080fd5b505af192505050801561245357506040513d601f19601f820116820180604052508101906124509190612cad565b60015b6124d6573d8060008114612483576040519150601f19603f3d011682016040523d82523d6000602084013e612488565b606091505b506000815114156124ce576040517f08c379a00000000000000000000000000000000000000000000000000000000081526004016124c5906133f7565b60405180910390fd5b805181602001fd5b63150b7a0260e01b7bffffffffffffffffffffffffffffffffffffffffffffffffffffffff1916817bffffffffffffffffffffffffffffffffffffffffffffffffffffffff19161491505061252b565b600190505b949350505050565b606060405180602001604052806000815250905090565b6060612555826114dc565b612594576040517f08c379a000000000000000000000000000000000000000000000000000000000815260040161258b90613377565b60405180910390fd5b600061259e612533565b905060008151116125be57604051806020016040528060008152506125e9565b806125c884612620565b6040516020016125d9929190613134565b6040516020818303038152906040525b915050919050565b50505050565b50505050565b6000808273ffffffffffffffffffffffffffffffffffffffff163b119050919050565b60606000821415612668576040518060400160405280600181526020017f300000000000000000000000000000000000000000000000000000000000000081525090506127c8565b600082905060005b6000821461269a57808061268390613850565b915050600a826126939190613658565b9150612670565b60008167ffffffffffffffff8111156126dc577f4e487b7100000000000000000000000000000000000000000000000000000000600052604160045260246000fd5b6040519080825280601f01601f19166020018201604052801561270e5781602001600182028036833780820191505090505b5090505b600085146127c15760018261272791906136bd565b9150600a856127369190613899565b60306127429190613602565b60f81b81838151811061277e577f4e487b7100000000000000000000000000000000000000000000000000000000600052603260045260246000fd5b60200101907effffffffffffffffffffffffffffffffffffffffffffffffffffffffffffff1916908160001a905350600a856127ba9190613658565b9450612712565b8093505050505b919050565b8280546127d9906137ed565b90600052602060002090601f0160209004810192826127fb5760008555612842565b82601f1061281457805160ff1916838001178555612842565b82800160010185558215612842579182015b82811115612841578251825591602001919060010190612826565b5b50905061284f919061288d565b5090565b6040518060400160405280600073ffffffffffffffffffffffffffffffffffffffff168152602001600067ffffffffffffffff1681525090565b5b808211156128a657600081600090555060010161288e565b5090565b60006128bd6128b884613517565b6134f2565b9050828152602081018484840111156128d557600080fd5b6128e0848285613781565b509392505050565b60006128fb6128f684613548565b6134f2565b90508281526020810184848401111561291357600080fd5b61291e848285613781565b509392505050565b60008135905061293581613fef565b92915050565b60008135905061294a81614006565b92915050565b60008135905061295f8161401d565b92915050565b6000815190506129748161401d565b92915050565b600082601f83011261298b57600080fd5b813561299b8482602086016128aa565b91505092915050565b600082601f8301126129b557600080fd5b81356129c58482602086016128e8565b91505092915050565b6000813590506129dd81614034565b92915050565b6000602082840312156129f557600080fd5b6000612a0384828501612926565b91505092915050565b60008060408385031215612a1f57600080fd5b6000612a2d85828601612926565b9250506020612a3e85828601612926565b9150509250929050565b600080600060608486031215612a5d57600080fd5b6000612a6b86828701612926565b9350506020612a7c86828701612926565b9250506040612a8d868287016129ce565b9150509250925092565b60008060008060808587031215612aad57600080fd5b6000612abb87828801612926565b9450506020612acc87828801612926565b9350506040612add878288016129ce565b925050606085013567ffffffffffffffff811115612afa57600080fd5b612b068782880161297a565b91505092959194509250565b60008060408385031215612b2557600080fd5b6000612b3385828601612926565b9250506020612b448582860161293b565b9150509250929050565b60008060408385031215612b6157600080fd5b6000612b6f85828601612926565b9250506020612b80858286016129ce565b9150509250929050565b600080600060608486031215612b9f57600080fd5b6000612bad86828701612926565b9350506020612bbe868287016129ce565b925050604084013567ffffffffffffffff811115612bdb57600080fd5b612be78682870161297a565b9150509250925092565b60008060008060808587031215612c0757600080fd5b6000612c1587828801612926565b9450506020612c26878288016129ce565b935050604085013567ffffffffffffffff811115612c4357600080fd5b612c4f8782880161297a565b925050606085013567ffffffffffffffff811115612c6c57600080fd5b612c78878288016129a4565b91505092959194509250565b600060208284031215612c9657600080fd5b6000612ca484828501612950565b91505092915050565b600060208284031215612cbf57600080fd5b6000612ccd84828501612965565b91505092915050565b600060208284031215612ce857600080fd5b6000612cf6848285016129ce565b91505092915050565b60008060408385031215612d1257600080fd5b6000612d20858286016129ce565b925050602083013567ffffffffffffffff811115612d3d57600080fd5b612d49858286016129a4565b9150509250929050565b612d5c816136f1565b82525050565b612d6b81613703565b82525050565b612d7a8161370f565b82525050565b6000612d8b82613579565b612d95818561358f565b9350612da5818560208601613790565b612dae81613986565b840191505092915050565b6000612dc482613584565b612dce81856135a0565b9350612dde818560208601613790565b612de781613986565b840191505092915050565b6000612dfd82613584565b612e0781856135b1565b9350612e17818560208601613790565b80840191505092915050565b6000612e306022836135a0565b9150612e3b82613997565b604082019050919050565b6000612e536026836135a0565b9150612e5e826139e6565b604082019050919050565b6000612e76602a836135a0565b9150612e8182613a35565b604082019050919050565b6000612e996023836135a0565b9150612ea482613a84565b604082019050919050565b6000612ebc6025836135a0565b9150612ec782613ad3565b604082019050919050565b6000612edf6039836135a0565b9150612eea82613b22565b604082019050919050565b6000612f02602e836135a0565b9150612f0d82613b71565b604082019050919050565b6000612f25602b836135a0565b9150612f3082613bc0565b604082019050919050565b6000612f486031836135a0565b9150612f5382613c0f565b604082019050919050565b6000612f6b6026836135a0565b9150612f7682613c5e565b604082019050919050565b6000612f8e6020836135a0565b9150612f9982613cad565b602082019050919050565b6000612fb1602f836135a0565b9150612fbc82613cd6565b604082019050919050565b6000612fd4601a836135a0565b9150612fdf82613d25565b602082019050919050565b6000612ff76032836135a0565b915061300282613d4e565b604082019050919050565b600061301a6022836135a0565b915061302582613d9d565b604082019050919050565b600061303d6033836135a0565b915061304882613dec565b604082019050919050565b6000613060601d836135a0565b915061306b82613e3b565b602082019050919050565b60006130836021836135a0565b915061308e82613e64565b604082019050919050565b60006130a6602e836135a0565b91506130b182613eb3565b604082019050919050565b60006130c9602f836135a0565b91506130d482613f02565b604082019050919050565b60006130ec602d836135a0565b91506130f782613f51565b604082019050919050565b600061310f6022836135a0565b915061311a82613fa0565b604082019050919050565b61312e81613777565b82525050565b60006131408285612df2565b915061314c8284612df2565b91508190509392505050565b600060208201905061316d6000830184612d53565b92915050565b60006080820190506131886000830187612d53565b6131956020830186612d53565b6131a26040830185613125565b81810360608301526131b48184612d80565b905095945050505050565b60006020820190506131d46000830184612d62565b92915050565b60006020820190506131ef6000830184612d71565b92915050565b6000602082019050818103600083015261320f8184612db9565b905092915050565b6000602082019050818103600083015261323081612e23565b9050919050565b6000602082019050818103600083015261325081612e46565b9050919050565b6000602082019050818103600083015261327081612e69565b9050919050565b6000602082019050818103600083015261329081612e8c565b9050919050565b600060208201905081810360008301526132b081612eaf565b9050919050565b600060208201905081810360008301526132d081612ed2565b9050919050565b600060208201905081810360008301526132f081612ef5565b9050919050565b6000602082019050818103600083015261331081612f18565b9050919050565b6000602082019050818103600083015261333081612f3b565b9050919050565b6000602082019050818103600083015261335081612f5e565b9050919050565b6000602082019050818103600083015261337081612f81565b9050919050565b6000602082019050818103600083015261339081612fa4565b9050919050565b600060208201905081810360008301526133b081612fc7565b9050919050565b600060208201905081810360008301526133d081612fea565b9050919050565b600060208201905081810360008301526133f08161300d565b9050919050565b6000602082019050818103600083015261341081613030565b9050919050565b6000602082019050818103600083015261343081613053565b9050919050565b6000602082019050818103600083015261345081613076565b9050919050565b6000602082019050818103600083015261347081613099565b9050919050565b60006020820190508181036000830152613490816130bc565b9050919050565b600060208201905081810360008301526134b0816130df565b9050919050565b600060208201905081810360008301526134d081613102565b9050919050565b60006020820190506134ec6000830184613125565b92915050565b60006134fc61350d565b9050613508828261381f565b919050565b6000604051905090565b600067ffffffffffffffff82111561353257613531613957565b5b61353b82613986565b9050602081019050919050565b600067ffffffffffffffff82111561356357613562613957565b5b61356c82613986565b9050602081019050919050565b600081519050919050565b600081519050919050565b600082825260208201905092915050565b600082825260208201905092915050565b600081905092915050565b60006135c78261373b565b91506135d28361373b565b9250826fffffffffffffffffffffffffffffffff038211156135f7576135f66138ca565b5b828201905092915050565b600061360d82613777565b915061361883613777565b9250827fffffffffffffffffffffffffffffffffffffffffffffffffffffffffffffffff0382111561364d5761364c6138ca565b5b828201905092915050565b600061366382613777565b915061366e83613777565b92508261367e5761367d6138f9565b5b828204905092915050565b60006136948261373b565b915061369f8361373b565b9250828210156136b2576136b16138ca565b5b828203905092915050565b60006136c882613777565b91506136d383613777565b9250828210156136e6576136e56138ca565b5b828203905092915050565b60006136fc82613757565b9050919050565b60008115159050919050565b60007fffffffff0000000000000000000000000000000000000000000000000000000082169050919050565b60006fffffffffffffffffffffffffffffffff82169050919050565b600073ffffffffffffffffffffffffffffffffffffffff82169050919050565b6000819050919050565b82818337600083830152505050565b60005b838110156137ae578082015181840152602081019050613793565b838111156137bd576000848401525b50505050565b60006137ce82613777565b915060008214156137e2576137e16138ca565b5b600182039050919050565b6000600282049050600182168061380557607f821691505b6020821081141561381957613818613928565b5b50919050565b61382882613986565b810181811067ffffffffffffffff8211171561384757613846613957565b5b80604052505050565b600061385b82613777565b91507fffffffffffffffffffffffffffffffffffffffffffffffffffffffffffffffff82141561388e5761388d6138ca565b5b600182019050919050565b60006138a482613777565b91506138af83613777565b9250826138bf576138be6138f9565b5b828206905092915050565b7f4e487b7100000000000000000000000000000000000000000000000000000000600052601160045260246000fd5b7f4e487b7100000000000000000000000000000000000000000000000000000000600052601260045260246000fd5b7f4e487b7100000000000000000000000000000000000000000000000000000000600052602260045260246000fd5b7f4e487b7100000000000000000000000000000000000000000000000000000000600052604160045260246000fd5b6000601f19601f8301169050919050565b7f455243373231413a206f776e657220696e646578206f7574206f6620626f756e60008201527f6473000000000000000000000000000000000000000000000000000000000000602082015250565b7f4f776e61626c653a206e6577206f776e657220697320746865207a65726f206160008201527f6464726573730000000000000000000000000000000000000000000000000000602082015250565b7f455243373231413a206f776e657220717565727920666f72206e6f6e6578697360008201527f74656e7420746f6b656e00000000000000000000000000000000000000000000602082015250565b7f455243373231413a20676c6f62616c20696e646578206f7574206f6620626f7560008201527f6e64730000000000000000000000000000000000000000000000000000000000602082015250565b7f455243373231413a207472616e7366657220746f20746865207a65726f20616460008201527f6472657373000000000000000000000000000000000000000000000000000000602082015250565b7f455243373231413a20617070726f76652063616c6c6572206973206e6f74206f60008201527f776e6572206e6f7220617070726f76656420666f7220616c6c00000000000000602082015250565b7f45524337323155524953746f726167653a2055524920736574206f66206e6f6e60008201527f6578697374656e7420746f6b656e000000000000000000000000000000000000602082015250565b7f455243373231413a2062616c616e636520717565727920666f7220746865207a60008201527f65726f2061646472657373000000000000000000000000000000000000000000602082015250565b7f45524337323155524953746f726167653a2055524920717565727920666f722060008201527f6e6f6e6578697374656e7420746f6b656e000000000000000000000000000000602082015250565b7f455243373231413a207472616e736665722066726f6d20696e636f727265637460008201527f206f776e65720000000000000000000000000000000000000000000000000000602082015250565b7f4f776e61626c653a2063616c6c6572206973206e6f7420746865206f776e6572600082015250565b7f4552433732314d657461646174613a2055524920717565727920666f72206e6f60008201527f6e6578697374656e7420746f6b656e0000000000000000000000000000000000602082015250565b7f455243373231413a20617070726f766520746f2063616c6c6572000000000000600082015250565b7f455243373231413a207472616e736665722063616c6c6572206973206e6f742060008201527f6f776e6572206e6f7220617070726f7665640000000000000000000000000000602082015250565b7f455243373231413a20617070726f76616c20746f2063757272656e74206f776e60008201527f6572000000000000000000000000000000000000000000000000000000000000602082015250565b7f455243373231413a207472616e7366657220746f206e6f6e204552433732315260008201527f6563656976657220696d706c656d656e74657200000000000000000000000000602082015250565b7f455243373231413a20746f6b656e20616c7265616479206d696e746564000000600082015250565b7f455243373231413a206d696e7420746f20746865207a65726f2061646472657360008201527f7300000000000000000000000000000000000000000000000000000000000000602082015250565b7f455243373231413a20756e61626c6520746f2067657420746f6b656e206f662060008201527f6f776e657220627920696e646578000000000000000000000000000000000000602082015250565b7f455243373231413a20756e61626c6520746f2064657465726d696e652074686560008201527f206f776e6572206f6620746f6b656e0000000000000000000000000000000000602082015250565b7f455243373231413a20617070726f76656420717565727920666f72206e6f6e6560008201527f78697374656e7420746f6b656e00000000000000000000000000000000000000602082015250565b7f455243373231413a207175616e7469747920746f206d696e7420746f6f20686960008201527f6768000000000000000000000000000000000000000000000000000000000000602082015250565b613ff8816136f1565b811461400357600080fd5b50565b61400f81613703565b811461401a57600080fd5b50565b6140268161370f565b811461403157600080fd5b50565b61403d81613777565b811461404857600080fd5b5056fea26469706673582212201ae9687c03bc4da393c3ffbfe100e4dc309f0978fac6e51a72bb52256bb8ad1764736f6c63430008040033",
  "immutableReferences": {
    "1322": [
      {
        "length": 32,
        "start": 7313
      },
      {
        "length": 32,
        "start": 8487
      },
      {
        "length": 32,
        "start": 8528
      }
    ]
  },
  "source": "// SPDX-License-Identifier: MIT\r\npragma solidity ^0.8.4;\r\n\r\nimport \"./ERC721A.sol\";\r\nimport \"./Ownable.sol\";\r\nimport \"./Counters.sol\";\r\nimport \"./ERC721URIStorage.sol\";\r\nimport \"./IERC721Receiver.sol\";\r\n\r\ncontract NFTErc721a is ERC721URIStorage, IERC721Receiver, Ownable {\r\n    using Counters for Counters.Counter;\r\n    Counters.Counter private tokenIdCount;\r\n\r\n    using Strings for uint256;\r\n    uint256 public tokenId;\r\n    uint256 public totalNFTSupply;\r\n    string public _tokenURI;\r\n    bool public isRevealed;\r\n    address contractAddress;\r\n    \r\n    \r\n\r\n    mapping (uint256 => string) private _tokenURIs;\r\n\r\n    constructor(address marketplaceAddress, uint256 _maxBatchSize)\r\n        ERC721A(\"NFT Trader\", \"NFTT\", _maxBatchSize)\r\n    {\r\n        contractAddress = marketplaceAddress;\r\n        \r\n    }\r\n\r\n\r\n    //Mint NFTs\r\n    function mintNFTToken(address contractAddress,\r\n        uint256 quantity,\r\n        bytes memory data, string memory tokenURI_)\r\n        public\r\n        returns (uint256)\r\n    {\r\n        uint256 id = tokenIdCount.current();\r\n        tokenIdCount.increment(); \r\n        _safeMint(contractAddress, quantity,data);\r\n        totalNFTSupply = totalNFTSupply + quantity;\r\n        _setTokenURI(id, tokenURI_);\r\n        setApprovalForAll(contractAddress, true);\r\n        return id ;\r\n    }\r\n\r\n\r\n//    function _setTokenURI(uint256 _tokenId, string memory token_URI) public {\r\n//         require(_exists(_tokenId), \"ERC721URIStorage: URI set of nonexistent token\");\r\n//         _tokenURIs[_tokenId] = token_URI;\r\n//     }\r\n   function setTokenURI(uint256 _tokenId, string memory token_URI) public {\r\n        _setTokenURI(_tokenId, token_URI);\r\n    }\r\n\r\n    // // setting url by forloop\r\n    // uint setCounter=0;\r\n    // function mintNFTToken2(address contractAddress,\r\n    //     uint256 quantity,\r\n    //     bytes memory data,\r\n    //     string memory tokenURI_)\r\n    //     public\r\n    //     returns (uint256)\r\n    // {\r\n    //     setCounter+=quantity;\r\n    //     uint256 id = tokenIdCount.current();\r\n    //     tokenIdCount.increment(); \r\n    //     _safeMint(contractAddress, quantity,data);\r\n    //     totalNFTSupply = totalNFTSupply + quantity;\r\n\r\n    //     for(uint i=setCounter;i<quantity;quantity++){\r\n    //     _setTokenURI(i, tokenURI_);\r\n    //     }\r\n        \r\n    //     setApprovalForAll(contractAddress, true);\r\n    //     return id ;\r\n    // }\r\n\r\n    //Mint NFTs\r\n    function createNFTtoken(\r\n        address to,\r\n        uint256 quantity,\r\n        bytes memory _data\r\n    ) public returns (uint256) {\r\n        _safeMint(to, quantity, _data);\r\n        totalNFTSupply = totalNFTSupply + quantity;\r\n        setApprovalForAll(contractAddress, true);\r\n        return tokenId;\r\n    }\r\n\r\n    //Get TotalSupply of NFT\r\n    function getTotalSupply() public view returns (uint256) {\r\n        return totalNFTSupply;\r\n    }\r\n\r\n    function onERC721Received(\r\n        address,\r\n        address,\r\n        uint256,\r\n        bytes memory\r\n    ) public virtual override returns (bytes4) {\r\n        return this.onERC721Received.selector;\r\n    }\r\n}",
  "sourcePath": "C:\\Users\\admin\\Desktop\\Paritaproject\\NFTTrader\\NFT_Trader Smart_Contract\\contracts\\NFTErc721a.sol",
  "compiler": {
    "name": "solc",
    "version": "0.8.4+commit.c7e474f2.Emscripten.clang"
  },
  "schemaVersion": "3.4.7",
  "updatedAt": "2022-09-22T10:04:16.918Z",
  "networkType": "ethereum",
  "devdoc": {
    "kind": "dev",
    "methods": {
      "approve(address,uint256)": {
        "details": "See {IERC721-approve}."
      },
      "balanceOf(address)": {
        "details": "See {IERC721-balanceOf}."
      },
      "getApproved(uint256)": {
        "details": "See {IERC721-getApproved}."
      },
      "isApprovedForAll(address,address)": {
        "details": "See {IERC721-isApprovedForAll}."
      },
      "name()": {
        "details": "See {IERC721Metadata-name}."
      },
      "owner()": {
        "details": "Returns the address of the current owner."
      },
      "ownerOf(uint256)": {
        "details": "See {IERC721-ownerOf}."
      },
      "renounceOwnership()": {
        "details": "Leaves the contract without owner. It will not be possible to call `onlyOwner` functions anymore. Can only be called by the current owner. NOTE: Renouncing ownership will leave the contract without an owner, thereby removing any functionality that is only available to the owner."
      },
      "safeTransferFrom(address,address,uint256)": {
        "details": "See {IERC721-safeTransferFrom}."
      },
      "safeTransferFrom(address,address,uint256,bytes)": {
        "details": "See {IERC721-safeTransferFrom}."
      },
      "setApprovalForAll(address,bool)": {
        "details": "See {IERC721-setApprovalForAll}."
      },
      "supportsInterface(bytes4)": {
        "details": "See {IERC165-supportsInterface}."
      },
      "symbol()": {
        "details": "See {IERC721Metadata-symbol}."
      },
      "tokenByIndex(uint256)": {
        "details": "See {IERC721Enumerable-tokenByIndex}."
      },
      "tokenOfOwnerByIndex(address,uint256)": {
        "details": "See {IERC721Enumerable-tokenOfOwnerByIndex}. This read function is O(totalSupply). If calling from a separate contract, be sure to test gas first. It may also degrade with extremely large collection sizes (e.g >> 10000), test for your use case."
      },
      "tokenURI(uint256)": {
        "details": "See {IERC721Metadata-tokenURI}."
      },
      "totalSupply()": {
        "details": "See {IERC721Enumerable-totalSupply}."
      },
      "transferFrom(address,address,uint256)": {
        "details": "See {IERC721-transferFrom}."
      },
      "transferOwnership(address)": {
        "details": "Transfers ownership of the contract to a new account (`newOwner`). Can only be called by the current owner."
      }
    },
    "version": 1
  },
  "userdoc": {
    "kind": "user",
    "methods": {},
    "version": 1
  }
}