{
  "contractName": "NFTMarketPlace",
  "abi": [
    {
      "inputs": [],
      "stateMutability": "nonpayable",
      "type": "constructor"
    },
    {
      "anonymous": false,
      "inputs": [
        {
          "indexed": true,
          "internalType": "address",
          "name": "nftContract",
          "type": "address"
        },
        {
          "indexed": true,
          "internalType": "uint256",
          "name": "id",
          "type": "uint256"
        },
        {
          "indexed": false,
          "internalType": "uint256",
          "name": "tokenId",
          "type": "uint256"
        },
        {
          "indexed": false,
          "internalType": "address",
          "name": "owner",
          "type": "address"
        },
        {
          "indexed": false,
          "internalType": "address",
          "name": "seller",
          "type": "address"
        },
        {
          "indexed": false,
          "internalType": "uint256",
          "name": "price",
          "type": "uint256"
        },
        {
          "indexed": false,
          "internalType": "bool",
          "name": "sold",
          "type": "bool"
        }
      ],
      "name": "NftMerketItemCreated",
      "type": "event"
    },
    {
      "anonymous": false,
      "inputs": [
        {
          "indexed": true,
          "internalType": "address",
          "name": "account",
          "type": "address"
        }
      ],
      "name": "addTowhitelisted",
      "type": "event"
    },
    {
      "inputs": [],
      "name": "AllowToWhiteListed",
      "outputs": [
        {
          "internalType": "bool",
          "name": "",
          "type": "bool"
        }
      ],
      "stateMutability": "view",
      "type": "function",
      "constant": true
    },
    {
      "inputs": [
        {
          "internalType": "uint256",
          "name": "",
          "type": "uint256"
        }
      ],
      "name": "WhiteArray",
      "outputs": [
        {
          "internalType": "address",
          "name": "",
          "type": "address"
        }
      ],
      "stateMutability": "view",
      "type": "function",
      "constant": true
    },
    {
      "inputs": [],
      "name": "canPause",
      "outputs": [
        {
          "internalType": "bool",
          "name": "",
          "type": "bool"
        }
      ],
      "stateMutability": "view",
      "type": "function",
      "constant": true
    },
    {
      "inputs": [],
      "name": "totalNFTSupply",
      "outputs": [
        {
          "internalType": "uint256",
          "name": "",
          "type": "uint256"
        }
      ],
      "stateMutability": "view",
      "type": "function",
      "constant": true
    },
    {
      "inputs": [
        {
          "internalType": "address",
          "name": "",
          "type": "address"
        }
      ],
      "name": "whitelistedAddresses",
      "outputs": [
        {
          "internalType": "bool",
          "name": "",
          "type": "bool"
        }
      ],
      "stateMutability": "view",
      "type": "function",
      "constant": true
    },
    {
      "inputs": [
        {
          "internalType": "address",
          "name": "",
          "type": "address"
        },
        {
          "internalType": "address",
          "name": "",
          "type": "address"
        },
        {
          "internalType": "uint256",
          "name": "",
          "type": "uint256"
        },
        {
          "internalType": "bytes",
          "name": "",
          "type": "bytes"
        }
      ],
      "name": "onERC721Received",
      "outputs": [
        {
          "internalType": "bytes4",
          "name": "",
          "type": "bytes4"
        }
      ],
      "stateMutability": "nonpayable",
      "type": "function"
    },
    {
      "inputs": [
        {
          "internalType": "uint256",
          "name": "_totalNFTSupply",
          "type": "uint256"
        }
      ],
      "name": "setTotalNFTSupply",
      "outputs": [
        {
          "internalType": "uint256",
          "name": "__totalNFTSupply",
          "type": "uint256"
        }
      ],
      "stateMutability": "nonpayable",
      "type": "function"
    },
    {
      "inputs": [],
      "name": "allowToBuyForWhiteListed",
      "outputs": [
        {
          "internalType": "bool",
          "name": "",
          "type": "bool"
        }
      ],
      "stateMutability": "nonpayable",
      "type": "function"
    },
    {
      "inputs": [
        {
          "internalType": "uint256",
          "name": "_price",
          "type": "uint256"
        }
      ],
      "name": "setPrice",
      "outputs": [
        {
          "internalType": "uint256",
          "name": "",
          "type": "uint256"
        }
      ],
      "stateMutability": "nonpayable",
      "type": "function"
    },
    {
      "inputs": [
        {
          "internalType": "address",
          "name": "nftContract",
          "type": "address"
        },
        {
          "internalType": "uint256",
          "name": "tokenId",
          "type": "uint256"
        }
      ],
      "name": "buyNFT",
      "outputs": [],
      "stateMutability": "payable",
      "type": "function",
      "payable": true
    },
    {
      "inputs": [
        {
          "internalType": "address",
          "name": "sender",
          "type": "address"
        }
      ],
      "name": "fetchMyNFTs",
      "outputs": [
        {
          "components": [
            {
              "internalType": "address",
              "name": "nftContract",
              "type": "address"
            },
            {
              "internalType": "uint256",
              "name": "id",
              "type": "uint256"
            },
            {
              "internalType": "uint256",
              "name": "tokenId",
              "type": "uint256"
            },
            {
              "internalType": "address payable",
              "name": "owner",
              "type": "address"
            },
            {
              "internalType": "address payable",
              "name": "seller",
              "type": "address"
            },
            {
              "internalType": "uint256",
              "name": "price",
              "type": "uint256"
            },
            {
              "internalType": "bool",
              "name": "sold",
              "type": "bool"
            }
          ],
          "internalType": "struct NFTMarketPlace.NftMerketItem[]",
          "name": "",
          "type": "tuple[]"
        }
      ],
      "stateMutability": "view",
      "type": "function",
      "constant": true
    },
    {
      "inputs": [],
      "name": "getSoldNFTCount",
      "outputs": [
        {
          "internalType": "uint256",
          "name": "soldNFTCount",
          "type": "uint256"
        }
      ],
      "stateMutability": "view",
      "type": "function",
      "constant": true
    },
    {
      "inputs": [],
      "name": "getFreeNFTPurchased",
      "outputs": [
        {
          "components": [
            {
              "internalType": "address",
              "name": "nftContract",
              "type": "address"
            },
            {
              "internalType": "uint256",
              "name": "id",
              "type": "uint256"
            },
            {
              "internalType": "uint256",
              "name": "tokenId",
              "type": "uint256"
            },
            {
              "internalType": "address payable",
              "name": "owner",
              "type": "address"
            },
            {
              "internalType": "address payable",
              "name": "seller",
              "type": "address"
            },
            {
              "internalType": "uint256",
              "name": "price",
              "type": "uint256"
            },
            {
              "internalType": "bool",
              "name": "sold",
              "type": "bool"
            }
          ],
          "internalType": "struct NFTMarketPlace.NftMerketItem[]",
          "name": "",
          "type": "tuple[]"
        }
      ],
      "stateMutability": "view",
      "type": "function",
      "constant": true
    },
    {
      "inputs": [],
      "name": "getPaidNFTPurchased",
      "outputs": [
        {
          "components": [
            {
              "internalType": "address",
              "name": "nftContract",
              "type": "address"
            },
            {
              "internalType": "uint256",
              "name": "id",
              "type": "uint256"
            },
            {
              "internalType": "uint256",
              "name": "tokenId",
              "type": "uint256"
            },
            {
              "internalType": "address payable",
              "name": "owner",
              "type": "address"
            },
            {
              "internalType": "address payable",
              "name": "seller",
              "type": "address"
            },
            {
              "internalType": "uint256",
              "name": "price",
              "type": "uint256"
            },
            {
              "internalType": "bool",
              "name": "sold",
              "type": "bool"
            }
          ],
          "internalType": "struct NFTMarketPlace.NftMerketItem[]",
          "name": "",
          "type": "tuple[]"
        }
      ],
      "stateMutability": "view",
      "type": "function",
      "constant": true
    },
    {
      "inputs": [],
      "name": "getAllUnsoldNFT",
      "outputs": [
        {
          "components": [
            {
              "internalType": "address",
              "name": "nftContract",
              "type": "address"
            },
            {
              "internalType": "uint256",
              "name": "id",
              "type": "uint256"
            },
            {
              "internalType": "uint256",
              "name": "tokenId",
              "type": "uint256"
            },
            {
              "internalType": "address payable",
              "name": "owner",
              "type": "address"
            },
            {
              "internalType": "address payable",
              "name": "seller",
              "type": "address"
            },
            {
              "internalType": "uint256",
              "name": "price",
              "type": "uint256"
            },
            {
              "internalType": "bool",
              "name": "sold",
              "type": "bool"
            }
          ],
          "internalType": "struct NFTMarketPlace.NftMerketItem[]",
          "name": "",
          "type": "tuple[]"
        }
      ],
      "stateMutability": "view",
      "type": "function",
      "constant": true
    },
    {
      "inputs": [
        {
          "internalType": "address",
          "name": "userAddress",
          "type": "address"
        }
      ],
      "name": "set",
      "outputs": [],
      "stateMutability": "nonpayable",
      "type": "function"
    },
    {
      "inputs": [
        {
          "internalType": "address",
          "name": "userAddress",
          "type": "address"
        }
      ],
      "name": "getSingle",
      "outputs": [
        {
          "internalType": "uint256",
          "name": "",
          "type": "uint256"
        }
      ],
      "stateMutability": "view",
      "type": "function",
      "constant": true
    },
    {
      "inputs": [
        {
          "internalType": "address",
          "name": "_whitelistedAddress",
          "type": "address"
        }
      ],
      "name": "verifyUser",
      "outputs": [
        {
          "internalType": "bool",
          "name": "",
          "type": "bool"
        }
      ],
      "stateMutability": "view",
      "type": "function",
      "constant": true
    },
    {
      "inputs": [
        {
          "internalType": "address",
          "name": "userAddress",
          "type": "address"
        }
      ],
      "name": "remove",
      "outputs": [],
      "stateMutability": "nonpayable",
      "type": "function"
    },
    {
      "inputs": [],
      "name": "getAll",
      "outputs": [
        {
          "internalType": "address[]",
          "name": "",
          "type": "address[]"
        }
      ],
      "stateMutability": "view",
      "type": "function",
      "constant": true
    }
  ],
  "bytecode": "0x60806040526001600260146101000a81548160ff02191690831515021790555060006006556000600860006101000a81548160ff02191690831515021790555034801561004b57600080fd5b50600160008190555033600160006101000a81548173ffffffffffffffffffffffffffffffffffffffff021916908373ffffffffffffffffffffffffffffffffffffffff160217905550612616806100a46000396000f3fe60806040526004361061011f5760003560e01c806369c11736116100a0578063cae7783611610064578063cae7783614610414578063cbe553531461043f578063e2c792811461047c578063e3bda495146104a7578063f1054615146104d25761011f565b806369c117361461031657806391b7f5ed1461035357806392954ed314610390578063a82ba76f146103cd578063b08832ed146103e95761011f565b80632801617e116100e75780632801617e1461023157806329092d0e1461025a578063323be1c5146102835780634d813120146102ae57806353ed5143146102eb5761011f565b806306c933d81461012457806310afee1e14610161578063150b7a021461019e5780631fecdeff146101db57806326a1ac1914610206575b600080fd5b34801561013057600080fd5b5061014b60048036038101906101469190611dc4565b6104fd565b604051610158919061219b565b60405180910390f35b34801561016d57600080fd5b5061018860048036038101906101839190611dc4565b61051d565b6040516101959190612179565b60405180910390f35b3480156101aa57600080fd5b506101c560048036038101906101c09190611ded565b610895565b6040516101d291906121b6565b60405180910390f35b3480156101e757600080fd5b506101f06108a9565b6040516101fd919061219b565b60405180910390f35b34801561021257600080fd5b5061021b6108bc565b6040516102289190612211565b60405180910390f35b34801561023d57600080fd5b5061025860048036038101906102539190611dc4565b6108cd565b005b34801561026657600080fd5b50610281600480360381019061027c9190611dc4565b610b1c565b005b34801561028f57600080fd5b50610298610d83565b6040516102a5919061219b565b60405180910390f35b3480156102ba57600080fd5b506102d560048036038101906102d09190611dc4565b610d96565b6040516102e2919061219b565b60405180910390f35b3480156102f757600080fd5b50610300610df1565b60405161030d9190612157565b60405180910390f35b34801561032257600080fd5b5061033d60048036038101906103389190611dc4565b610e7f565b60405161034a9190612211565b60405180910390f35b34801561035f57600080fd5b5061037a60048036038101906103759190611ea4565b610f4e565b6040516103879190612211565b60405180910390f35b34801561039c57600080fd5b506103b760048036038101906103b29190611ea4565b610f61565b6040516103c49190612211565b60405180910390f35b6103e760048036038101906103e29190611e68565b610f74565b005b3480156103f557600080fd5b506103fe61132a565b60405161040b9190612179565b60405180910390f35b34801561042057600080fd5b5061042961162e565b6040516104369190612179565b60405180910390f35b34801561044b57600080fd5b5061046660048036038101906104619190611ea4565b611932565b6040516104739190612105565b60405180910390f35b34801561048857600080fd5b50610491611971565b60405161049e9190612211565b60405180910390f35b3480156104b357600080fd5b506104bc611977565b6040516104c9919061219b565b60405180910390f35b3480156104de57600080fd5b506104e76119b8565b6040516104f49190612179565b60405180910390f35b600b6020528060005260406000206000915054906101000a900460ff1681565b6060600061052b6004611c8d565b905060008060005b838110156105c8578573ffffffffffffffffffffffffffffffffffffffff166009600083815260200190815260200160002060030160009054906101000a900473ffffffffffffffffffffffffffffffffffffffff1673ffffffffffffffffffffffffffffffffffffffff1614156105b5576001836105b29190612358565b92505b80806105c0906124a8565b915050610533565b5060008267ffffffffffffffff81111561060b577f4e487b7100000000000000000000000000000000000000000000000000000000600052604160045260246000fd5b60405190808252806020026020018201604052801561064457816020015b610631611cb1565b8152602001906001900390816106295790505b50905060005b84811015610888578673ffffffffffffffffffffffffffffffffffffffff166009600083815260200190815260200160002060030160009054906101000a900473ffffffffffffffffffffffffffffffffffffffff1673ffffffffffffffffffffffffffffffffffffffff1614156108755760008190506000600960008381526020019081526020016000209050806040518060e00160405290816000820160009054906101000a900473ffffffffffffffffffffffffffffffffffffffff1673ffffffffffffffffffffffffffffffffffffffff1673ffffffffffffffffffffffffffffffffffffffff16815260200160018201548152602001600282015481526020016003820160009054906101000a900473ffffffffffffffffffffffffffffffffffffffff1673ffffffffffffffffffffffffffffffffffffffff1673ffffffffffffffffffffffffffffffffffffffff1681526020016004820160009054906101000a900473ffffffffffffffffffffffffffffffffffffffff1673ffffffffffffffffffffffffffffffffffffffff1673ffffffffffffffffffffffffffffffffffffffff168152602001600582015481526020016006820160009054906101000a900460ff161515151581525050848681518110610858577f4e487b7100000000000000000000000000000000000000000000000000000000600052603260045260246000fd5b60200260200101819052506001856108709190612358565b945050505b8080610880906124a8565b91505061064a565b5080945050505050919050565b600063150b7a0260e01b9050949350505050565b600860009054906101000a900460ff1681565b60006108c86004611c8d565b905090565b6000600c80549050141561099b576001600b60008373ffffffffffffffffffffffffffffffffffffffff1673ffffffffffffffffffffffffffffffffffffffff16815260200190815260200160002060006101000a81548160ff021916908315150217905550600c819080600181540180825580915050600190039060005260206000200160009091909190916101000a81548173ffffffffffffffffffffffffffffffffffffffff021916908373ffffffffffffffffffffffffffffffffffffffff160217905550610b19565b60005b600c80549050811015610b17578173ffffffffffffffffffffffffffffffffffffffff16600c82815481106109fc577f4e487b7100000000000000000000000000000000000000000000000000000000600052603260045260246000fd5b9060005260206000200160009054906101000a900473ffffffffffffffffffffffffffffffffffffffff1673ffffffffffffffffffffffffffffffffffffffff161415610a4857610b04565b6001600b60008473ffffffffffffffffffffffffffffffffffffffff1673ffffffffffffffffffffffffffffffffffffffff16815260200190815260200160002060006101000a81548160ff021916908315150217905550600c829080600181540180825580915050600190039060005260206000200160009091909190916101000a81548173ffffffffffffffffffffffffffffffffffffffff021916908373ffffffffffffffffffffffffffffffffffffffff1602179055505b8080610b0f906124a8565b91505061099e565b505b50565b600080600090505b600c80549050811015610be0578273ffffffffffffffffffffffffffffffffffffffff16600c8281548110610b82577f4e487b7100000000000000000000000000000000000000000000000000000000600052603260045260246000fd5b9060005260206000200160009054906101000a900473ffffffffffffffffffffffffffffffffffffffff1673ffffffffffffffffffffffffffffffffffffffff161415610bcd578091505b8080610bd8906124a8565b915050610b24565b5060008190505b6001600c80549050610bf991906123ae565b811015610d0657600c600182610c0f9190612358565b81548110610c46577f4e487b7100000000000000000000000000000000000000000000000000000000600052603260045260246000fd5b9060005260206000200160009054906101000a900473ffffffffffffffffffffffffffffffffffffffff16600c8281548110610cab577f4e487b7100000000000000000000000000000000000000000000000000000000600052603260045260246000fd5b9060005260206000200160006101000a81548173ffffffffffffffffffffffffffffffffffffffff021916908373ffffffffffffffffffffffffffffffffffffffff1602179055508080610cfe906124a8565b915050610be7565b50600c6001600c80549050610d1b91906123ae565b81548110610d52577f4e487b7100000000000000000000000000000000000000000000000000000000600052603260045260246000fd5b9060005260206000200160006101000a81549073ffffffffffffffffffffffffffffffffffffffff02191690555050565b600260149054906101000a900460ff1681565b600080600b60008473ffffffffffffffffffffffffffffffffffffffff1673ffffffffffffffffffffffffffffffffffffffff16815260200190815260200160002060009054906101000a900460ff16905080915050919050565b6060600c805480602002602001604051908101604052809291908181526020018280548015610e7557602002820191906000526020600020905b8160009054906101000a900473ffffffffffffffffffffffffffffffffffffffff1673ffffffffffffffffffffffffffffffffffffffff1681526020019060010190808311610e2b575b5050505050905090565b600080600090505b600c805490508111610f47578273ffffffffffffffffffffffffffffffffffffffff16600c8281548110610ee4577f4e487b7100000000000000000000000000000000000000000000000000000000600052603260045260246000fd5b9060005260206000200160009054906101000a900473ffffffffffffffffffffffffffffffffffffffff1673ffffffffffffffffffffffffffffffffffffffff161415610f345780915050610f49565b8080610f3f906124a8565b915050610e87565b505b919050565b6000816006819055506006549050919050565b6000816005819055506005549050919050565b60026000541415610fba576040517f08c379a0000000000000000000000000000000000000000000000000000000008152600401610fb1906121f1565b60405180910390fd5b6002600081905550600860009054906101000a900460ff161561102057610fe033610d96565b61101f576040517f08c379a0000000000000000000000000000000000000000000000000000000008152600401611016906121d1565b60405180910390fd5b5b6000600654111561109757600160009054906101000a900473ffffffffffffffffffffffffffffffffffffffff1673ffffffffffffffffffffffffffffffffffffffff166108fc6006549081150290604051600060405180830381858888f19350505050158015611095573d6000803e3d6000fd5b505b60006110a36004611c8d565b90508273ffffffffffffffffffffffffffffffffffffffff166323b872dd3033846040518463ffffffff1660e01b81526004016110e293929190612120565b600060405180830381600087803b1580156110fc57600080fd5b505af1158015611110573d6000803e3d6000fd5b5050505061111e6004611c9b565b6040518060e001604052808473ffffffffffffffffffffffffffffffffffffffff1681526020018281526020018381526020013373ffffffffffffffffffffffffffffffffffffffff168152602001600073ffffffffffffffffffffffffffffffffffffffff1681526020016006548152602001600015158152506009600083815260200190815260200160002060008201518160000160006101000a81548173ffffffffffffffffffffffffffffffffffffffff021916908373ffffffffffffffffffffffffffffffffffffffff160217905550602082015181600101556040820151816002015560608201518160030160006101000a81548173ffffffffffffffffffffffffffffffffffffffff021916908373ffffffffffffffffffffffffffffffffffffffff16021790555060808201518160040160006101000a81548173ffffffffffffffffffffffffffffffffffffffff021916908373ffffffffffffffffffffffffffffffffffffffff16021790555060a0820151816005015560c08201518160060160006101000a81548160ff021916908315150217905550905050808373ffffffffffffffffffffffffffffffffffffffff167fc0949b7bee1a9850605ae4ddce98bc8465518f7638ede9269456ccbb5e0bd81384600033600654600060405161131595949392919061222c565b60405180910390a35060016000819055505050565b606060006113386004611c8d565b905060008060005b838110156113965760006009600060018461135b9190612358565b8152602001908152602001600020600501541415611383576001836113809190612358565b92505b808061138e906124a8565b915050611340565b5060008267ffffffffffffffff8111156113d9577f4e487b7100000000000000000000000000000000000000000000000000000000600052604160045260246000fd5b60405190808252806020026020018201604052801561141257816020015b6113ff611cb1565b8152602001906001900390816113f75790505b50905060005b84811015611623576000600960006001846114339190612358565b815260200190815260200160002060050154141561161057600060018261145a9190612358565b90506000600960008381526020019081526020016000209050806040518060e00160405290816000820160009054906101000a900473ffffffffffffffffffffffffffffffffffffffff1673ffffffffffffffffffffffffffffffffffffffff1673ffffffffffffffffffffffffffffffffffffffff16815260200160018201548152602001600282015481526020016003820160009054906101000a900473ffffffffffffffffffffffffffffffffffffffff1673ffffffffffffffffffffffffffffffffffffffff1673ffffffffffffffffffffffffffffffffffffffff1681526020016004820160009054906101000a900473ffffffffffffffffffffffffffffffffffffffff1673ffffffffffffffffffffffffffffffffffffffff1673ffffffffffffffffffffffffffffffffffffffff168152602001600582015481526020016006820160009054906101000a900460ff1615151515815250508486815181106115f3577f4e487b7100000000000000000000000000000000000000000000000000000000600052603260045260246000fd5b602002602001018190525060018561160b9190612358565b945050505b808061161b906124a8565b915050611418565b508094505050505090565b6060600061163c6003611c8d565b905060008060005b8381101561169a5760006009600060018461165f9190612358565b8152602001908152602001600020600501541115611687576001836116849190612358565b92505b8080611692906124a8565b915050611644565b5060008267ffffffffffffffff8111156116dd577f4e487b7100000000000000000000000000000000000000000000000000000000600052604160045260246000fd5b60405190808252806020026020018201604052801561171657816020015b611703611cb1565b8152602001906001900390816116fb5790505b50905060005b84811015611927576000600960006001846117379190612358565b815260200190815260200160002060050154111561191457600060018261175e9190612358565b90506000600960008381526020019081526020016000209050806040518060e00160405290816000820160009054906101000a900473ffffffffffffffffffffffffffffffffffffffff1673ffffffffffffffffffffffffffffffffffffffff1673ffffffffffffffffffffffffffffffffffffffff16815260200160018201548152602001600282015481526020016003820160009054906101000a900473ffffffffffffffffffffffffffffffffffffffff1673ffffffffffffffffffffffffffffffffffffffff1673ffffffffffffffffffffffffffffffffffffffff1681526020016004820160009054906101000a900473ffffffffffffffffffffffffffffffffffffffff1673ffffffffffffffffffffffffffffffffffffffff1673ffffffffffffffffffffffffffffffffffffffff168152602001600582015481526020016006820160009054906101000a900460ff1615151515815250508486815181106118f7577f4e487b7100000000000000000000000000000000000000000000000000000000600052603260045260246000fd5b602002602001018190525060018561190f9190612358565b945050505b808061191f906124a8565b91505061171c565b508094505050505090565b600c818154811061194257600080fd5b906000526020600020016000915054906101000a900473ffffffffffffffffffffffffffffffffffffffff1681565b60055481565b6000600860009054906101000a900460ff1615600860006101000a81548160ff021916908315150217905550600860009054906101000a900460ff16905090565b606060006119c66004611c8d565b6119d06003611c8d565b6119da91906123ae565b90506000808267ffffffffffffffff811115611a1f577f4e487b7100000000000000000000000000000000000000000000000000000000600052604160045260246000fd5b604051908082528060200260200182016040528015611a5857816020015b611a45611cb1565b815260200190600190039081611a3d5790505b50905060005b611a686003611c8d565b811015611c83576000151560096000600184611a849190612358565b815260200190815260200160002060060160009054906101000a900460ff1615151415611c70576000600182611aba9190612358565b90506000600960008381526020019081526020016000209050806040518060e00160405290816000820160009054906101000a900473ffffffffffffffffffffffffffffffffffffffff1673ffffffffffffffffffffffffffffffffffffffff1673ffffffffffffffffffffffffffffffffffffffff16815260200160018201548152602001600282015481526020016003820160009054906101000a900473ffffffffffffffffffffffffffffffffffffffff1673ffffffffffffffffffffffffffffffffffffffff1673ffffffffffffffffffffffffffffffffffffffff1681526020016004820160009054906101000a900473ffffffffffffffffffffffffffffffffffffffff1673ffffffffffffffffffffffffffffffffffffffff1673ffffffffffffffffffffffffffffffffffffffff168152602001600582015481526020016006820160009054906101000a900460ff161515151581525050848681518110611c53577f4e487b7100000000000000000000000000000000000000000000000000000000600052603260045260246000fd5b6020026020010181905250600185611c6b9190612358565b945050505b8080611c7b906124a8565b915050611a5e565b5080935050505090565b600081600001549050919050565b6001816000016000828254019250508190555050565b6040518060e00160405280600073ffffffffffffffffffffffffffffffffffffffff1681526020016000815260200160008152602001600073ffffffffffffffffffffffffffffffffffffffff168152602001600073ffffffffffffffffffffffffffffffffffffffff168152602001600081526020016000151581525090565b6000611d45611d40846122a4565b61227f565b905082815260208101848484011115611d5d57600080fd5b611d68848285612468565b509392505050565b600081359050611d7f816125b2565b92915050565b600082601f830112611d9657600080fd5b8135611da6848260208601611d32565b91505092915050565b600081359050611dbe816125c9565b92915050565b600060208284031215611dd657600080fd5b6000611de484828501611d70565b91505092915050565b60008060008060808587031215611e0357600080fd5b6000611e1187828801611d70565b9450506020611e2287828801611d70565b9350506040611e3387828801611daf565b925050606085013567ffffffffffffffff811115611e5057600080fd5b611e5c87828801611d85565b91505092959194509250565b60008060408385031215611e7b57600080fd5b6000611e8985828601611d70565b9250506020611e9a85828601611daf565b9150509250929050565b600060208284031215611eb657600080fd5b6000611ec484828501611daf565b91505092915050565b6000611ed98383611f0c565b60208301905092915050565b6000611ef18383612059565b60e08301905092915050565b611f06816123f4565b82525050565b611f15816123e2565b82525050565b611f24816123e2565b82525050565b6000611f35826122f5565b611f3f8185612325565b9350611f4a836122d5565b8060005b83811015611f7b578151611f628882611ecd565b9750611f6d8361230b565b925050600181019050611f4e565b5085935050505092915050565b6000611f9382612300565b611f9d8185612336565b9350611fa8836122e5565b8060005b83811015611fd9578151611fc08882611ee5565b9750611fcb83612318565b925050600181019050611fac565b5085935050505092915050565b611fef81612406565b82525050565b611ffe81612406565b82525050565b61200d81612412565b82525050565b6000612020601a83612347565b915061202b82612560565b602082019050919050565b6000612043601f83612347565b915061204e82612589565b602082019050919050565b60e08201600082015161206f6000850182611f0c565b50602082015161208260208501826120e7565b50604082015161209560408501826120e7565b5060608201516120a86060850182611efd565b5060808201516120bb6080850182611efd565b5060a08201516120ce60a08501826120e7565b5060c08201516120e160c0850182611fe6565b50505050565b6120f08161245e565b82525050565b6120ff8161245e565b82525050565b600060208201905061211a6000830184611f1b565b92915050565b60006060820190506121356000830186611f1b565b6121426020830185611f1b565b61214f60408301846120f6565b949350505050565b600060208201905081810360008301526121718184611f2a565b905092915050565b600060208201905081810360008301526121938184611f88565b905092915050565b60006020820190506121b06000830184611ff5565b92915050565b60006020820190506121cb6000830184612004565b92915050565b600060208201905081810360008301526121ea81612013565b9050919050565b6000602082019050818103600083015261220a81612036565b9050919050565b600060208201905061222660008301846120f6565b92915050565b600060a08201905061224160008301886120f6565b61224e6020830187611f1b565b61225b6040830186611f1b565b61226860608301856120f6565b6122756080830184611ff5565b9695505050505050565b600061228961229a565b90506122958282612477565b919050565b6000604051905090565b600067ffffffffffffffff8211156122bf576122be612520565b5b6122c88261254f565b9050602081019050919050565b6000819050602082019050919050565b6000819050602082019050919050565b600081519050919050565b600081519050919050565b6000602082019050919050565b6000602082019050919050565b600082825260208201905092915050565b600082825260208201905092915050565b600082825260208201905092915050565b60006123638261245e565b915061236e8361245e565b9250827fffffffffffffffffffffffffffffffffffffffffffffffffffffffffffffffff038211156123a3576123a26124f1565b5b828201905092915050565b60006123b98261245e565b91506123c48361245e565b9250828210156123d7576123d66124f1565b5b828203905092915050565b60006123ed8261243e565b9050919050565b60006123ff8261243e565b9050919050565b60008115159050919050565b60007fffffffff0000000000000000000000000000000000000000000000000000000082169050919050565b600073ffffffffffffffffffffffffffffffffffffffff82169050919050565b6000819050919050565b82818337600083830152505050565b6124808261254f565b810181811067ffffffffffffffff8211171561249f5761249e612520565b5b80604052505050565b60006124b38261245e565b91507fffffffffffffffffffffffffffffffffffffffffffffffffffffffffffffffff8214156124e6576124e56124f1565b5b600182019050919050565b7f4e487b7100000000000000000000000000000000000000000000000000000000600052601160045260246000fd5b7f4e487b7100000000000000000000000000000000000000000000000000000000600052604160045260246000fd5b6000601f19601f8301169050919050565b7f4163636f756e74206973206e6f742057686974656c6973746564000000000000600082015250565b7f5265656e7472616e637947756172643a207265656e7472616e742063616c6c00600082015250565b6125bb816123e2565b81146125c657600080fd5b50565b6125d28161245e565b81146125dd57600080fd5b5056fea2646970667358221220bafd5eeb0fa0d6fb82a2c4f108401ca313c74e40ff8fbee21f2bdc6c2a7843e364736f6c63430008040033",
  "immutableReferences": {},
  "source": "// SPDX-License-Identifier: MIT\r\npragma solidity ^0.8.0;\r\n\r\nimport \"./Counters.sol\";\r\nimport \"./ERC721A.sol\";\r\nimport \"./ReentrancyGuard.sol\";\r\nimport \"./IERC721Receiver.sol\";\r\n\r\ncontract NFTMarketPlace is ReentrancyGuard, IERC721Receiver {\r\n    address payable owner;\r\n    address payable contractOwner;\r\n    bool public canPause = true;\r\n    using Counters for Counters.Counter;\r\n    Counters.Counter private itemId;\r\n    Counters.Counter private itemsSold;\r\n    uint256 public totalNFTSupply;\r\n    uint256 price = 0;\r\n    uint256 account;\r\n\r\n    constructor() {\r\n        owner = payable(msg.sender);\r\n    }\r\n\r\n    modifier onlyOwner() {\r\n        require(msg.sender == owner, \"Ownable: caller is not the owner\");\r\n        _;\r\n    }\r\n\r\n    modifier isWhitelisted(address _address) {\r\n        require(whitelistedAddresses[_address], \"You need to be whitelisted\");\r\n        _;\r\n    }\r\n\r\n    struct NftMerketItem {\r\n        address nftContract;\r\n        uint256 id;\r\n        uint256 tokenId;\r\n        address payable owner;\r\n        address payable seller;\r\n        uint256 price;\r\n        bool sold;\r\n    }\r\n\r\n    event NftMerketItemCreated(\r\n        address indexed nftContract,\r\n        uint256 indexed id,\r\n        uint256 tokenId,\r\n        address owner,\r\n        address seller,\r\n        uint256 price,\r\n        bool sold\r\n    );\r\n\r\n    bool public AllowToWhiteListed = false;\r\n\r\n    mapping(uint256 => NftMerketItem) private idForMarketItem;\r\n\r\n    mapping(uint256 => address payable) private contractOwnerList;\r\n\r\n    mapping(address => bool) public  whitelistedAddresses;\r\n    address[] public WhiteArray;\r\n\r\n    event addTowhitelisted(address indexed account);\r\n    \r\n    //Transfer NFT Using IERC721 function\r\n    function onERC721Received(\r\n        address,\r\n        address,\r\n        uint256,\r\n        bytes memory\r\n        ) public virtual override returns (bytes4) {\r\n            return this.onERC721Received.selector;\r\n        }\r\n        \r\n   // Set TotalSupply of NFT\r\n    function setTotalNFTSupply(uint256 _totalNFTSupply)\r\n        public\r\n        returns (uint256 __totalNFTSupply)\r\n        {\r\n            totalNFTSupply = _totalNFTSupply;\r\n            return totalNFTSupply;\r\n        }\r\n\r\n   //Set Whitelisted Function \r\n    function allowToBuyForWhiteListed() public returns (bool) {\r\n        AllowToWhiteListed = !AllowToWhiteListed;\r\n        return AllowToWhiteListed;\r\n    }\r\n\r\n   //Set Price Function \r\n    function setPrice(uint256 _price) public returns (uint256) {\r\n        price = _price;\r\n        return price;\r\n    }\r\n\r\n   //Buy NFT Function \r\n    function buyNFT(address nftContract, uint256 tokenId)\r\n        public\r\n        payable\r\n        nonReentrant\r\n        {\r\n            if (AllowToWhiteListed) {\r\n                require(verifyUser(msg.sender), \"Account is not Whitelisted\");\r\n            }\r\n\r\n            if (price > 0) {\r\n                owner.transfer(price);\r\n            }\r\n            uint256 id = itemsSold.current();\r\n            IERC721(nftContract).transferFrom(address(this), msg.sender, id); //buy\r\n            itemsSold.increment();\r\n            idForMarketItem[id] = NftMerketItem(\r\n                nftContract,\r\n                id,\r\n                tokenId,\r\n                payable(msg.sender),\r\n                payable(address(0)),\r\n                price,\r\n                false\r\n            );\r\n\r\n            emit NftMerketItemCreated(\r\n                nftContract,\r\n                id,\r\n                tokenId,\r\n                address(0),\r\n                msg.sender,\r\n                price,\r\n                false\r\n            );\r\n        }\r\n\r\n   //Fetch MY NFT\r\n    function fetchMyNFTs(address sender)\r\n        public\r\n        view\r\n        returns (NftMerketItem[] memory)\r\n        {\r\n            uint256 totalItemCount = itemsSold.current();\r\n            uint256 itemCount = 0;\r\n            uint256 currentIndex = 0;\r\n\r\n            for (uint256 i = 0; i < totalItemCount; i++) {\r\n                if (idForMarketItem[i].owner == sender) {\r\n                    itemCount += 1;\r\n                }\r\n            }\r\n\r\n            NftMerketItem[] memory items = new NftMerketItem[](itemCount);\r\n            for (uint256 i = 0; i < totalItemCount; i++) {\r\n                if (idForMarketItem[i].owner == sender) {\r\n                    uint256 currentId = i;\r\n                    NftMerketItem storage currentItem = idForMarketItem[currentId];\r\n                    items[currentIndex] = currentItem;\r\n                    currentIndex += 1;\r\n                }\r\n            }\r\n            return items;\r\n        }\r\n\r\n   // My Sold item count\r\n    function getSoldNFTCount() public view returns (uint256 soldNFTCount) {\r\n        return itemsSold.current();\r\n    }\r\n\r\n   // Free NFT Counter\r\n    function getFreeNFTPurchased()\r\n        public\r\n        view\r\n        returns (NftMerketItem[] memory)\r\n        {\r\n            uint256 totalItemCount = itemsSold.current();\r\n            uint256 myItemCount = 0; //10\r\n            uint256 myCurrentIndex = 0;\r\n\r\n            for (uint256 i = 0; i < totalItemCount; i++) {\r\n                if (idForMarketItem[i + 1].price == 0) {\r\n                    myItemCount += 1;\r\n                }\r\n            }\r\n\r\n            NftMerketItem[] memory nftItems = new NftMerketItem[](myItemCount); //list[3]\r\n            for (uint256 i = 0; i < totalItemCount; i++) {\r\n                if (idForMarketItem[i + 1].price == 0) {\r\n                    //[1,2,3,4,5]\r\n                    uint256 currentId = i + 1;\r\n                    NftMerketItem storage currentItem = idForMarketItem[currentId];\r\n                    nftItems[myCurrentIndex] = currentItem;\r\n                    myCurrentIndex += 1;\r\n                }\r\n            }\r\n\r\n            return nftItems;\r\n        }\r\n\r\n   //Paid NFT List\r\n    function getPaidNFTPurchased()\r\n        public\r\n        view\r\n        returns (NftMerketItem[] memory)\r\n        {\r\n            uint256 totalItemCount = itemId.current();\r\n            uint256 myItemCount = 0; //10\r\n            uint256 myCurrentIndex = 0;\r\n\r\n            for (uint256 i = 0; i < totalItemCount; i++) {\r\n                if (idForMarketItem[i + 1].price > 0) {\r\n                    myItemCount += 1;\r\n                }\r\n            }\r\n\r\n            NftMerketItem[] memory nftItems = new NftMerketItem[](myItemCount); //list[3]\r\n            for (uint256 i = 0; i < totalItemCount; i++) {\r\n                if (idForMarketItem[i + 1].price > 0) {\r\n                    //[1,2,3,4,5]\r\n                    uint256 currentId = i + 1;\r\n                    NftMerketItem storage currentItem = idForMarketItem[currentId];\r\n                    nftItems[myCurrentIndex] = currentItem;\r\n                    myCurrentIndex += 1;\r\n                }\r\n            }\r\n\r\n            return nftItems;\r\n        }\r\n\r\n   //Fetch  all unsold nft items\r\n    function getAllUnsoldNFT() public view returns (NftMerketItem[] memory) {\r\n        uint256 myItemCount = itemId.current() - itemsSold.current();\r\n        uint256 myCurrentIndex = 0;\r\n\r\n        NftMerketItem[] memory nftItems = new NftMerketItem[](myItemCount); //list[3]\r\n        for (uint256 i = 0; i < itemId.current(); i++) {\r\n            if (idForMarketItem[i + 1].sold == false) {\r\n                //[1,2,3,4,5]\r\n                uint256 currentId = i + 1;\r\n                NftMerketItem storage currentItem = idForMarketItem[currentId];\r\n                nftItems[myCurrentIndex] = currentItem;\r\n                myCurrentIndex += 1;\r\n            }\r\n        }\r\n\r\n        return nftItems;\r\n    }\r\n\r\n   //adding non-replicant users to whitelist one-by-one\r\n    function set(address userAddress) public {\r\n        //checking if an array is empty, then insert first element without checking\r\n        if(WhiteArray.length==0){\r\n            whitelistedAddresses[userAddress] = true;\r\n            WhiteArray.push(userAddress);\r\n        }\r\n        //inserting elements to array only if element is not present in an array\r\n        else{\r\n            for(uint i =0;i<WhiteArray.length;i++){\r\n                if(WhiteArray[i]==userAddress){\r\n                    continue;\r\n                }\r\n                whitelistedAddresses[userAddress] = true;\r\n                WhiteArray.push(userAddress);\r\n            }    \r\n        }\r\n    }\r\n\r\n    //getting index of single user if it's present\r\n    function getSingle(address userAddress) public view returns (uint) {\r\n        for (uint i = 0; i <= WhiteArray.length; i++) {\r\n            if(WhiteArray[i] == userAddress){\r\n                return i;\r\n            }\r\n        }\r\n    }\r\n\r\n   //Verify user is Whitelisted or not \r\n    function verifyUser(address _whitelistedAddress)\r\n        public\r\n        view\r\n        returns (bool)\r\n        {\r\n            bool userIsWhitelisted = whitelistedAddresses[_whitelistedAddress];\r\n            return userIsWhitelisted;\r\n        }\r\n\r\n   \r\n    function remove(address userAddress) public {\r\n        uint tempLen;\r\n        //getting item length \r\n        for(uint j=0;j<WhiteArray.length;j++){\r\n            if(WhiteArray[j]==userAddress){\r\n                tempLen=j;\r\n            }\r\n        }\r\n\r\n        //pop element from array then shift further elements to left side to avoid  '0' in array\r\n        for (uint i = tempLen; i < WhiteArray.length - 1; i++) {\r\n            WhiteArray[i] = WhiteArray[i + 1];\r\n        }\r\n        delete WhiteArray[WhiteArray.length - 1];\r\n        // WhiteArray.length--;\r\n    }\r\n\r\n   //getting all users array\r\n    function getAll() public view returns (address[] memory){\r\n        return WhiteArray;\r\n    }\r\n\r\n}\r\n",
  "sourcePath": "C:\\Users\\admin\\Desktop\\Paritaproject\\NFTTrader\\NFT_Trader Smart_Contract\\contracts\\NFTMarketPlace.sol",
  "compiler": {
    "name": "solc",
    "version": "0.8.4+commit.c7e474f2.Emscripten.clang"
  },
  "schemaVersion": "3.4.7",
  "updatedAt": "2022-09-22T10:04:16.957Z",
  "networkType": "ethereum",
  "devdoc": {
    "kind": "dev",
    "methods": {},
    "version": 1
  },
  "userdoc": {
    "kind": "user",
    "methods": {},
    "version": 1
  }
}